:020000040800F2
:10000000E0C700200952000811520008DB07000871
:10001000155200081752000819520008000000008D
:100020000000000000000000000000001B5200085B
:100030001D520008000000003B380008533900083A
:1000400023520008235200082352000823520008BC
:1000500023520008235200082352000823520008AC
:10006000235200082352000823520008235200089C
:100070002352000823520008C51900082352000823
:1000800023520008CD0A000823520008235200081A
:100090005D0E000823520008235200082352000876
:1000A000235200082352000823520008235200085C
:1000B000235200082352000823520008235200084C
:1000C000235200082352000823520008235200083C
:1000D00023520008E12A0008C10B0008BB1A0008DF
:1000E000235200082352000823520008235200081C
:1000F000235200082352000823520008235200080C
:1001000023520008235200082352000823520008FB
:1001100023520008235200082352000823520008EB
:1001200023520008235200082352000823520008DB
:1001300023520008235200082352000823520008CB
:100140001F270008235200082352000823520008EA
:100150002352000823520008EB290008235200080C
:10016000235200082352000823520008235200089B
:10017000235200082352000823520008235200088B
:100180002352000800F002F800F05AF80AA090E8A4
:10019000000C82448344AAF10107DA4501D100F042
:1001A0004FF8AFF2090EBAE80F0013F0010F18BFB5
:1001B000FB1A43F00103184714A0000034A000000C
:1001C0000A444FF0000C10F8013B13F0070408BF7D
:1001D00010F8014B1D1108BF10F8015B641E05D01B
:1001E00010F8016B641E01F8016BF9D113F0080FD0
:1001F0001EBF10F8014BAD1C0C1B09D16D1E58BF62
:1002000001F801CBFAD505E014F8016B01F8016B98
:100210006D1EF9D59142D6D370470000002300240B
:1002200000250026103A28BF78C1FBD8520728BF06
:1002300030C148BF0B6070471FB51FBD10B510BD62
:1002400009F0CCFE1146FFF7F7FF00F01CF809F0AB
:10025000EAFE03B4FFF7F2FF03BC09F0F1FE000071
:1002600010B500F0E3FA00F0E8FA10BD09F0C5F9A6
:1002700009F047FC09F023FC04E000F0BBFF32204A
:1002800000F0F0F8F9E7002403F0B6FA0446FFF7AF
:10029000E7FF00F011FB0A23084A0021AFF2330008
:1002A00000F0ECFA204603F0ABFA00F0FFFA02E0AF
:1002B0000A2000F0D7F8FBE7704700004413002045
:1002C00070B502460B46516814688C4203D1107B0E
:1002D00000F0010078B90846491C1669335490684B
:1002E000B1FBF0F500FB15118C4201D10120D0606B
:1002F0005160012070BD0020FCE770B502460B463E
:1003000054681168A14203D1107B00F0010090B144
:100310000846491C1669305C18709068B1FBF0F50E
:1003200000FB1511107B00F0010008B10020D06027
:100330001160012070BD0020FCE70146D1E90002F8
:10034000904205D1087B00F0010008B10120704700
:100350000020FCE70146D1E90002904205D1087B6C
:1003600000F0010008B9012070470020FCE7000000
:1003700070B502460D46FF21FF23002409E012F864
:10038000010B80EA01044248005D80EA0301414814
:10039000035D281EA5F10106B5B2F0D143EA0120A4
:1003A00070BDF0B504460D46160AD7B219460FE0E7
:1003B00014F8010B704008700878DFF8D4C01CF8FE
:1003C000000080EA07060878DFF8C8C01CF8007053
:1003D000281EA5F1010C1FFA8CF5E9D147EA062089
:1003E000F0BD30B502460020134602E013F8014B81
:1003F00060400C1EA1F10105A9B2F7D130BD10B5C6
:100400000246A52003E012F8014B2318D8B20B1EB8
:10041000A1F10104A1B2F6D110BD0146002041B105
:100420004FF4FA724A434FF47A73B2FBF3F000B917
:100430000120704770B504460D46002625B904F02A
:10044000BCFE2060012070BD2846FFF7E6FF06468F
:1004500004F0B3FE2168401AB04201D90120F2E74E
:100460000020F0E770B5044604B970BD4FF47A700F
:10047000B4FBF0F100FB1145B4FBF0F0C6B22B4623
:1004800032460021084604F019FE00BFEDE70000E7
:1004900000000020000100202DE9FF4F85B0044638
:1004A00090469B46DDF84890012C01D1904D12E01A
:1004B000022C01D18F4D0EE0032C01D18E4D0AE0AC
:1004C000042C01D18D4D06E0052C01D18C4D02E0AC
:1004D000062C00D18B4DB8F1000F01D100270CE0A4
:1004E000B8F1010F02D14FF4806706E0B8F1020FB6
:1004F00002D14FF4C06700E00027BBF1080F02D122
:100500004FF0000A07E0BBF1090F02D14FF4805A07
:1005100001E04FF0000AB9F1010F01D1002612E00D
:10052000B9F1020F02D14FF400560CE0B9F1030FFC
:1005300002D14FF4805606E0B9F1040F02D14FF416
:10054000405600E0002606980190ADF808A0ADF8EE
:100550000A60ADF80C700020ADF810000C20ADF86A
:100560000E0001A9284608F039FE012240F225516B
:10057000284608F071FF0121284608F0B7FE09B0AF
:10058000BDE8F08F2DE9F84306460F4614461D4698
:10059000DDF82080062E02DD0020BDE8F883002D66
:1005A00000DD641C23462A4639463046CDF80080DB
:1005B000FFF772FF0120F0E708B502F029F902F019
:1005C00053F902F032FA00F07BF900F0B0F900F0D4
:1005D0009CFA01F00BF901F030F901F013FA012057
:1005E000002308224FF4E1310090FFF7CBFF0120F8
:1005F000002308224FF4E13100900220FFF7C2FFF0
:100600000120002308224FF4E13100900320FFF77E
:10061000B9FF08BD2DE9F04104460D4616461F46B8
:10062000012C04D0022C07D0032C0FD109E0314655
:10063000284602F08EF90AE03146284600F0EDF92E
:1006400005E03146284601F067F900E000BF00BF31
:10065000BDE8F0812DE9F04104460D4616461F46DF
:10066000012C04D0022C08D0032C10D10AE0314612
:10067000284602F005FABDE8F0813146284600F030
:100680006FFAF8E73146284601F0E7F9F3E700BFD3
:1006900000BF4FF0FF30EEE72DE9F04104460D4674
:1006A00016461F46012C05D13A880023314668B210
:1006B000FFF7B0FFBDE8F0812DE9F04105460F4698
:1006C00016461C464FF00008012D0FD100234FF4B1
:1006D0007A72314678B2FFF7BDFF8046B8F1000F5D
:1006E00002DA0020208001E0A4F80080BDE8F0815B
:1006F000001001400044004000480040004C004011
:10070000005000400014014008B525208DF800007D
:1007100000208DF8010001208DF802008DF8030003
:10072000684604F086FE46208DF8000001208DF812
:10073000010004208DF8020001208DF803006846B6
:1007400004F077FE26208DF8000001208DF80100CE
:100750008DF802008DF80300684604F06AFE11204F
:100760008DF8000001208DF8010004208DF80200B2
:1007700001208DF80300684604F05BFE27208DF809
:10078000000001208DF801008DF802008DF80300B3
:10079000684604F04EFE0E208DF8000001208DF812
:1007A000010004208DF8020001208DF80300684646
:1007B00004F03FFE32208DF8000002208DF8010089
:1007C0008DF8020001208DF80300684604F031FE28
:1007D00000F034FB01F093FF08BD00BF254800681E
:1007E00000F4E06024490843001D22490860BFF37B
:1007F0004F8F00BF00BFFEE710B501F0C0FB10BD7A
:1008000070B504460D461646B2B22146284601F0A0
:1008100069FB40B270BD70B504460D461646B2B2D3
:100820002146284601F019FB40B270BD1FB568464D
:1008300006F0FFFC019804B010BD10B506F03BF8BF
:1008400000F0A2FC01F023FCFFF75EFF01F0AAF923
:1008500000F0B6FCFFF7B0FE00F085FC00F05DFA9A
:10086000FFF7CAFF00F0B6FF01F00EFE08F098FF98
:1008700010BD00000CED00E00000FA052DE9F0418C
:1008800005460E4617461C464FF00008E3B23A46AE
:100890003146284604F040F94FFA80F8B8F1000FCD
:1008A00002D10120BDE8F0810020FBE710B503F084
:1008B0005FF802F072FD10BD10B502F0CEFC10BD65
:1008C0001CB50121084606F049FD0121480406F047
:1008D00078FD07220221EF4806F0F9FA07220321EA
:1008E000EC4806F0F4FA00208DF8060001208DF89F
:1008F000070002208DF804000C20009002208DF8E3
:1009000005006946E34806F057FA00208DF8060016
:1009100001208DF807008DF8040080030090DE4967
:1009200008806946DC481A3806F046FA1CBD00B556
:100930008FB00121480506F011FDD84805F00EFDE5
:10094000D7480190002005904FF480600690002069
:100950000790089009904FF400300A9000200B9007
:1009600001200C9000200D900E904FF00060009040
:1009700040200390CB4802904FF480700490694669
:10098000C64805F08DFD01221021C44805F04FFE38
:1009900000220821C14805F04AFE01228021C048FA
:1009A000001F08F050FD0FB000BD10B5002407E097
:1009B0002246641CBB4BD118BB4A5068FFF79DFC14
:1009C000FF2C05D8B8494868FFF7C4FC0028EFD0D1
:1009D000B248001D0460B348B049A039C1F8AC006A
:1009E00040F22661AE48001F08F0A8FD0122102148
:1009F000AA4805F01CFE002240F22551A848001F1D
:100A000008F02AFD01228021A548001F08F01BFDE7
:100A10000121A24805F07EFD10BD70B505460C46CB
:100A20004FF47A66012C03D0B4F5807F00D80CB95E
:100A3000002070BD44E09C480068007870BB012035
:100A400099490968087080039349891E088000BF8E
:100A5000002095494968086093494968486092496F
:100A60004968C86000BF09E015F8011B8E4A50684C
:100A7000FFF726FC08B1641E00E001E0002CF3D172
:100A800000BFFFF792FF02E00120FFF7EBFC864872
:100A9000006800780028F7D10120CAE7761E7EB9E9
:100AA000002081490968087000BF7F4949680860D3
:100AB0007D49496848607C494968C86000BFB8E71B
:100AC000301EA6F10106B6D10120B2E710B5774974
:100AD000724805F098FD7649704805F0C5FD98B15B
:100AE00000216E4805F016FD012240F226616C4897
:100AF000001F08F0B1FC00221021684805F097FDA6
:100B00006B49664805F0DAFD10BD10B500BF002046
:100B100065494968086064494968486062494968AC
:100B2000C86000BF00BF6049896808605E49896885
:100B300048605D498968C86000BF5B490968087002
:100B40004FF480715B4809F0FDF94FF480615A4819
:100B500009F0F8F94FF48071524809F0F3F910BD2B
:100B600070B505460C4600260CB9701E70BD4E4986
:100B70008868FFF7EFFB10B14FF0FF30F6E715E0A4
:100B8000002240F226614648001F08F065FC294615
:100B90006D1C454A9068FFF7B0FB012240F22661C8
:100BA0003F48001F08F058FC641E761C002C05DD31
:100BB0003D498868FFF7CEFB0028E1D03046D5E7F5
:100BC00010B50F213648001F08F06BFC18B13448EF
:100BD000001F08F0BAFB40F225513148001F08F011
:100BE00076FCE8B1002240F225512D48001F08F0A4
:100BF00033FC2B48001F08F0A8FBC4B22A498868C0
:100C00002146FFF75DFB40F225512548001F08F003
:100C100095FC012240F225512148001F08F01CFCE0
:100C200040F226611E48001F08F051FCD8B1002296
:100C300040F226611A48001F08F00EFC4FF4804075
:100C400015490880012240F225511548001F08F07F
:100C500003FC40F226611248001F08F06FFC0020E0
:100C600011490968087010BD10B5002240F22661D4
:100C70000B48001F08F0F0FB002240F22551084805
:100C8000001F08F0E9FB00210548001F08F02EFBBB
:100C900010BD0000000002401A180240A06002408F
:100CA000044400404818002050A0000800001D2007
:100CB00000802020481300204814002070B504460E
:100CC0000D460026012C02D0022C0AD104E0284651
:100CD00000F0F9F8064605E0284601F055FD064605
:100CE00000E000BF00BF304670BD2DE9F041044672
:100CF0000D4616461F46DDF81880012C02D0022C46
:100D000008D106E043463A463146284600F00EF93F
:100D100000E000BF00BFBDE8F08110B500F0BBF9F6
:100D200001F065FD10BD000010B540F6BC31DF4894
:100D300009F02AF910BD1CB50121082006F00EFBB0
:100D400009220021DA4806F0C2F809220121D84818
:100D500006F0BDF80320009002208DF804008DF805
:100D6000050000208DF8060001208DF80700694677
:100D7000CF4806F021F8CF4804F0F8FD01214806DD
:100D800006F01FFB1CBD00B587B001A800F0D8F924
:100D900000208DF816008DF8170001208DF818003E
:100DA0000198000CADF80C00019880B2ADF80E006F
:100DB0000298000CADF81000029880B2ADF8120055
:100DC0000020ADF8140001208DF8190003A804F0EC
:100DD00070FE07B000BD3EB50024684604F0EAFE90
:100DE00000208DF8060001208DF8070000208DF806
:100DF00008008DF809008DF80A008DF80B008DF8B9
:100E000002008DF8030007208DF8040002208DF801
:100E100005001420ADF800006946A64804F0BFFDA7
:100E2000044614B1012C02D100E000E000BF00BF75
:100E3000012202219F4805F03BF93EBD08B5142070
:100E40008DF8000000208DF801008DF802000120CF
:100E50008DF80300684604F0ECFA08BD10B586B0C2
:100E6000142101A809F090F89048B0F8B84B14216B
:100E700001A809F089F802218E4805F081F900B334
:100E800001AA00218B4804F0F8FF04EB8401874A93
:100E900002EB8100142201A909F022F88348B0F87E
:100EA000B80B401C8149A1F8B80B0846B0F8B80B44
:100EB000962802D10020A1F8B80B02217D4805F048
:100EC000FAF906B010BD70B5054600260024774833
:100ED000B0F8BA0B7549B1F8B81B884200D123E0CD
:100EE0007248B0F8BA4B04EB8400704A02EB800100
:100EF0001422284608F0F4FF04EB84016B4A02EB4D
:100F00008100142109F040F86848B0F8BA0B401C81
:100F10006649A1F8BA0B0846B0F8BA0B962802D178
:100F20000020A1F8BA0B0126304670BD2DE9F04132
:100F300086B005460F4614461E46142101A809F046
:100F400023F84FF0040800F006F90090142101A8DE
:100F500009F01AF800200190300440EA04209DF8BE
:100F60000010084302990843029004208DF80C00F9
:100F700000208DF80D008DF80E502A4639460DF1EF
:100F80000F0008F068FF182C01DBBB2C1AD14A496E
:100F9000B1F8B82BB1F8B81B491C474BA3F8B81BE4
:100FA00002EB82011A4602EB8100142201A908F02B
:100FB00097FF4148B0F8B80B962803D100203E496E
:100FC000A1F8B80BB8F1040F00D100E000BF00BFDA
:100FD00006B0BDE8F08170B586B0142101A808F014
:100FE000D3FF00250426002400213448FFF722FA0D
:100FF00000BF4BE03048B0F8BA0B2F49B1F8B81B2E
:10100000884242D02C48B0F8BA5B05EB85002A4AEA
:1010100002EB8001142201A808F062FF01A9254813
:1010200004F036FE0646042E14D02348B0F8BA0B5E
:10103000401C2149A1F8BA0B0846B0F8BA0B962813
:1010400002D10020A1F8BA0B601CC4B200201C49D8
:10105000087017E01A480078052803DB05201849B6
:10106000087015E00220FFF7FDF94FF47A7113487C
:10107000FFF7E0F9012805D111480078401C10491C
:10108000087005E000F0B6F800E001E0032CB1DBE9
:1010900000BF06B070BD10B5FFF746FEFFF74BFE70
:1010A000FFF771FEFFF797FE10BD00004819002002
:1010B000000C024000640040042500202C020020A7
:1010C00030020020002100200722072108E0012330
:1010D0008B40134013B14B1CD8B203E04B1ED9B266
:1010E0000029F4DC00BF704700B52548006820F0F7
:1010F0000200234908600846006820F00400001D33
:1011000008600846006820F4FF6008600846006830
:1011100020F4FF2000F584300860FFF7D3FFFF21A3
:1011200001FA00F01649496860F3CA0114484160A9
:10113000406820F4FF2000F5FF201149486000BD01
:101140000F4A06CAC0E90012704721200D490870F5
:1011500000204870704708B50A4800680090BDF844
:101160000010084608BD00B5054800210160416037
:1011700004480180FFF7B8FFFFF7E7FF00BD00005C
:10118000340200203C02002010B50121022006F0AC
:10119000E5F80121042006F0E1F80121082006F01D
:1011A000DDF80121102006F0D9F80121202006F0F9
:1011B000D5F80121402006F0D1F808F0CFF910BD94
:1011C00010B5012005F0C7FF00BF612005F065FFE5
:1011D0000028FAD045F2555005F0AEFE032005F088
:1011E000AEFE40F2E24005F0ADFE05F0AEFE05F0C9
:1011F000B1FE10BD10B505F0A8FE10BD1CB5012153
:10120000080306F0EFF80121084606F0A7F80522CA
:101210001146FE4805F05BFE05220621FB4805F05D
:1012200056FE05220721F94805F051FE02208DF8EF
:1012300004008DF8050000208DF8060002208DF8CE
:101240000700202000906946F04805F0B5FD4020D9
:1012500000906946ED4805F0AFFD8020009069469A
:10126000EA4805F0A9FD1020009001208DF8040047
:1012700000208DF8060002208DF8050000208DF872
:1012800007006946E14805F097FD1CBD70B50546AD
:10129000DF4C00BF0221DF4807F0C5F818B9201E57
:1012A000A4F10104F6D10CB9002070BDD9488581A4
:1012B000D74C00BF0121D74807F0B5F818B9201E58
:1012C000A4F10104F6D10CB90020EEE7D1488089E1
:1012D000C0B2EAE710B500241021CC4805F0EAFDC1
:1012E0000520FFF7D3FF00BFA520FFF7CFFF04467F
:1012F00004F001000028F7D11021C44805F0D8FD02
:1013000010BD10B51021C14805F0D4FD0620FFF72F
:10131000BDFF1021BD4805F0CBFD10BD10B5044642
:10132000FFF7EFFF1021B94805F0C4FD2020FFF7BB
:10133000ADFFC4F30740FFF7A9FFC4F30720FFF791
:10134000A5FFE0B2FFF7A2FF1021B04805F0B0FD05
:10135000FFF7C0FF10BD70B505460C461646FFF7F7
:10136000D0FF1021A94805F0A5FD0220FFF78EFF50
:10137000C4F30740FFF78AFFC4F30720FFF786FF97
:10138000E0B2FFF783FF03E02878FFF77FFF6D1CD3
:10139000301EA6F101018EB2F6D110219B4805F056
:1013A00087FDFFF797FF70BD2DE9F05F07460E46FA
:1013B00014464FF00008C146C2460025AB4606F071
:1013C000FF0ACAF10000C5B22046E11704EB116123
:1013D000C1F30728E11704EB11610912A4EB012105
:1013E00001F0FF09BAF1000F20D1B8F1000F05D1CB
:1013F000224631463846FFF7AEFF64E009E04FF47D
:10140000807231463846FFF7A6FF06F5807607F56D
:101410008077B8F10000A8F1010101F0FF08EED1DA
:101420004A4631463846FFF796FF4CE0B8F1000FC8
:1014300018D1A94510DDA9EB050000F0FF0B2A46E5
:1014400031463846FFF787FF2E442F445A4631462F
:101450003846FFF780FF36E0224631463846FFF730
:101460007AFF30E0601B84B22046E11704EB116183
:10147000C1F30728E11704EB11610912A4EB012164
:1014800001F0FF092A4631463846FFF764FF2E4433
:101490002F4409E04FF4807231463846FFF75BFF76
:1014A00006F5807607F58077B8F10000A8F1010114
:1014B00001F0FF08EED1B9F1000F04D04A463146E1
:1014C0003846FFF748FFBDE8F09F70B505460C466B
:1014D000164610214D4805F0EDFC0320FFF7D6FE1F
:1014E000C4F30740FFF7D2FEC4F30720FFF7CEFE98
:1014F000E0B2FFF7CBFE04E0A520FFF7C7FE28709F
:101500006D1C301EA6F101018EB2F5D110213F48AD
:1015100005F0CEFC70BD2DE9F04707460D4690461C
:101520002C0B240305EB0800001BC0F3073605EB6A
:101530000800001BC0F30B09B9F1000F01D0701CAB
:10154000C6B2002E31DDA5422FD005EB080104F50F
:10155000805081420FD2424639462F4808F07BFC2A
:101560004744424629462C48FFF71EFF0120FEF75C
:1015700079FF002619E0281BC0F58052394626481D
:1015800008F069FC281BC0F580500744281BC0F5F3
:10159000805082B229462048FFF706FF0120FEF75F
:1015A00061FF04F58054701EC6B22EE04FF48052E5
:1015B00021461948FFF789FF2046FFF7AFFE0320B9
:1015C000FEF750FF012E0BD14A463946124808F06B
:1015D00042FC1FFA89F221460F48FFF7E5FE0BE0B7
:1015E0004FF4805239460C4808F035FC4FF48052D5
:1015F00021460948FFF7D8FE0120FEF733FF04F526
:10160000805407F58057701EC6B207E00000024004
:10161000FFFF0F0000300140C0300020002EC5D178
:10162000BDE8F0872DE9F04707460D4690462C0BA4
:10163000240305EB0800001BC0F3073605EB080088
:10164000001BC0F30B09B9F1000F01D0701CC6B22A
:10165000002E30DDA5422ED04FF4805221465F4847
:10166000FFF733FF2046FFF759FE05EB080104F5AD
:101670008050814208D259492944081B42463946C4
:1016800008F0E9FB47440CE0291BC1F5805253499F
:101690002944081B394608F0DEFB281BC0F58050A2
:1016A00007444FF4805221464C48FFF77DFE04F575
:1016B0008054701EC6B22EE04FF480522146474837
:1016C000FFF703FF2046FFF729FE0320FEF7CAFEBF
:1016D000012E0BD14A463946404808F0BCFB1FFAA0
:1016E00089F221463D48FFF75FFE0BE04FF4805240
:1016F00039463A4808F0AFFB4FF48052214637484C
:10170000FFF752FE0120FEF7ADFE04F5805407F509
:101710008057701EC6B2002ECED1BDE8F0872DE9ED
:10172000F041002400250026002710212C4805F058
:10173000C1FB9F20FFF7AAFD5520FFF7A7FD054637
:101740005520FFF7A3FD06465520FFF79FFD0746EE
:101750001021234805F0ACFB280440EA062040EAAB
:1017600007042046BDE8F08100B585B0FFF746FDCF
:1017700010211B4805F09CFB0020ADF800004FF441
:101780008270ADF802000020ADF804000220ADF830
:1017900006000120ADF808004002ADF80A0008205C
:1017A000ADF80C000020ADF80E000720ADF81000D9
:1017B00069460C4806F0C4FC01210A4806F0A3FD66
:1017C000FFF7ADFF0849884202D1012005B000BDF6
:1017D0000020FBE710B5FFF7C7FF10BDC0300020A9
:1017E00000000240003001401971EF001CB50121DA
:1017F000082005F0B3FD0121880405F0E2FD072271
:101800000821E04805F063FB07220921DD4805F0C7
:101810005EFB00208DF8060001208DF807000220F5
:101820008DF804004FF44070009002208DF8050000
:101830006946D44805F0C0FA1CBD00B58FB001213F
:10184000480505F08BFDD04804F088FDCF48019095
:10185000002005904FF480600690002007900890CB
:1018600009904FF480300A9000200B9003200C90D8
:1018700000200D900E904FF00060009040200390EB
:10188000C34802904FF4807004906946BE4804F04B
:1018900007FE01221021BC4804F0C9FE00220821E5
:1018A000B94804F0C4FE01228021B848001F07F0A7
:1018B000CAFD0FB000BD10B5002407E02246641C2D
:1018C000B34BD118B34A5068FEF717FDFF2C05D86B
:1018D000B0494868FEF73EFD0028EFD0AA485838C6
:1018E000C465AB48A8495839486601221021A6486A
:1018F00004F09DFE002240F22551A448001F07F08D
:10190000ABFD01228021A148001F07F09CFD0121B1
:101910009D4804F0FFFD10BD70B505460C464FF420
:101920007A66012C02D0B4F5807F01D9002070BD09
:1019300042E098480068007860BB0120954909683A
:10194000087000BF002093494968086091494968C0
:10195000486090494968C86000BF00BF8D498968E8
:1019600008608C49896848608A498968C86000BFF6
:1019700009E015F8011B874A5068FEF7A1FC08B181
:10198000641E00E001E0002CF3D100BFFFF793FFDD
:101990000120CCE7761E7EB900207E4909680870D8
:1019A00000BF7C49496808607A49496848607949BC
:1019B0004968C86000BFBAE7301EA6F10106B8D179
:1019C0000120B4E710B54FF0BA516F4804F01BFE88
:1019D00071496D4804F048FE98B100216A4804F04E
:1019E00099FD012240F226616848001F07F034FD8E
:1019F00000221021644804F01AFE6749624804F08E
:101A00005DFE10BD10B500BF002062494968086046
:101A10006049496848605F494968C86000BF00BFC5
:101A20005C49896808605B498968486059498968E8
:101A3000C86000BF5749096808704FF48071574863
:101A400008F080FA4FF48071554808F07BFA4FF4A3
:101A500080714F4808F076FA10BD70B505460C4607
:101A600000260CB9701E70BD4A498868FEF772FCEA
:101A700010B14FF0FF30F6E715E0002240F226618A
:101A80004248001F07F0E8FC29466D1C414A906857
:101A9000FEF733FC012240F226613C48001F07F0AC
:101AA000DBFC641E761C002C05DD3A498868FEF7D5
:101AB00051FC0028E1D03046D5E710B50E2133485F
:101AC000001F07F0EEFC18B13048001F07F03DFC86
:101AD00040F225512D48001F07F0F9FCE8B1002223
:101AE00040F225512948001F07F0B6FC2748001F87
:101AF00007F02BFCC4B2274988682146FEF7E0FBBB
:101B000040F225512148001F07F018FD012240F244
:101B100025511E48001F07F09FFC40F226611B481C
:101B2000001F07F0D4FCB8B1002240F2266117482C
:101B3000001F07F091FC012240F225511348001FBD
:101B400007F08AFC40F226611048001F07F0F6FCFF
:101B5000002010490968087010BD10B5002240F23D
:101B600026610A48001F07F077FC002240F2255149
:101B70000648001F07F070FC00210448001F07F012
:101B8000B5FB10BD000C0240586002400448004004
:101B9000C04200205CA0000800800018C040002067
:101BA000C041002010B50121080705F00AFC012002
:101BB00005F0EDF90121880405F0D0FB012005F0C6
:101BC000F9F900BF082005F02CFA0028FAD010BD62
:101BD00030B50346002400200D4D5C1900BF04E021
:101BE0000D5C04F8015B451CA8B29042F8DB30BDE7
:101BF00030B5034600240020054D5C1900BF04E009
:101C000014F8015B0D54451CA8B29042F8DB30BDBE
:101C100000400240C82000E0401E0028FCD1704770
:101C200010B54FF40060E749088040100880FFF7C6
:101C3000F1FFFFF7EFFFFFF7EDFFE248083800681C
:101C400000F4006008B9002010BD4FF40060DD49C9
:101C5000891C0880FFF7DEFFDA480838006800F4C6
:101C6000006008B10020EFE74FF40060D549891CFF
:101C70000880FFF7CFFF0120E6E710B54FF4806042
:101C8000D049891C0880FFF7C5FF4FF40060CD499B
:101C90000880FFF7BFFF4FF48060CA490880FFF754
:101CA000B9FF4FF40060C749891C0880FFF7B2FFF5
:101CB00010BD10B54FF48060C249891C0880FFF741
:101CC000A9FF4FF40060BF49891C0880FFF7A2FFFD
:101CD0004FF48060BB490880FFF79CFF4FF4006021
:101CE000B8490880FFF796FF10BD10B54FF480602B
:101CF000B449891C0880FFF78DFF4FF40060B1499B
:101D0000891C0880FFF786FF4FF48060AD4908808A
:101D1000FFF780FF4FF48060AA49891C0880FFF715
:101D200079FF10BD10B54FF48060A649891C08806A
:101D3000FFF770FF4FF40060A2490880FFF76AFFC9
:101D40004FF480609F490880FFF764FF4FF4806084
:101D50009C49891C0880FFF75DFF10BD10B54FF44A
:101D600080609849891C0880FFF754FF4FF4006099
:101D700094490880FFF74EFF4FF480609149088036
:101D8000FFF748FF8F480838006800F4006030B162
:101D90004FF480608B49891C0880002010BD4FF4EF
:101DA00080608849891C08800120F7E770B50446E7
:101DB00008251DE04FF480608249891C0880FFF7E8
:101DC00029FF04F0800020B14FF400607D490880B5
:101DD00004E04FF400607B49891C08806006040E13
:101DE000FFF718FF4FF4806076490880FFF712FF75
:101DF000281EA5F10101CDB2DCD14FF480607149FC
:101E0000891C088070BD70B50825002428026D4922
:101E1000088016E06006040E4FF480606949891C52
:101E20000880FFF7F7FE4FF4806066490880FFF7EF
:101E3000F1FE64480838006800F4006008B144F01E
:101E40000104281EA5F10101CDB2E3D14FF4806059
:101E50005C49891C0880204670BD2DE9F047064684
:101E60000C461746C4F30A044FEA14284FEA480800
:101E700004F0FF0AFFF7D4FE08F1A001C8B2FFF793
:101E800095FFFFF76BFF10B90020BDE8F0875046C3
:101E9000FFF78CFFFFF762FF08B90020F5E7FFF7B7
:101EA000ECFE08F1A101C8B2FFF780FFFFF756FF73
:101EB00008B90020E9E700250CE0FFF7A4FF814600
:101EC000781EA84201DDFFF710FF86F80090761C0F
:101ED000681C85B2BD42F0DBFFF724FFFFF7E9FE87
:101EE0000120D2E72DE9F04706460D4617464FF48C
:101EF000004035494883002403E0FFF78BFE601C57
:101F000084B2322CF9DBC5F30A054FEA15284FEAF3
:101F1000480805F0FF09FFF783FE08F1A001C8B2E9
:101F2000FFF744FFFFF71AFF10B90020BDE8F08764
:101F30004846FFF73BFFFFF711FF08B90020F5E720
:101F400000240AE03078FFF731FF761CFFF706FF28
:101F500008B90020EAE7601C84B2BC42F2DBFFF75C
:101F6000A8FE002403E0FFF755FE601C84B2322C6B
:101F7000F9DB4FF40040144908830120D6E71CB573
:101F80000121022005F0EAF90121102005F0E6F90F
:101F90004FF44060009001208DF804008DF805009A
:101FA0008DF806008DF8070069460648183804F0D9
:101FB00003FF4FF4004000906946034804F0FCFE24
:101FC0001CBD000018040240001002401CB5002097
:101FD000019000900121080705F0F3F9012004F0B9
:101FE000D6FF864805F094F941F63F7000907C20BA
:101FF0000190012005F0A7F900BF05F0EDFA0028D7
:10200000FBD04FF4807006F032F84FF4003004F04B
:10201000FEFB1CBD13B582B09DF80C008DF80400CA
:102020009DF80D008DF805009DF80E008DF8060056
:10203000052406E001A9002005F00AFC012800D1D2
:1020400004E0201EA4F10101CCB2F3D100BF0020B6
:102050008DF800009DF80B008DF802009DF80A0035
:102060008DF80100BDF80800C0B28DF8030005240A
:1020700006E06946002005F072FC012800D104E06A
:10208000201EA4F10101CCB2F3D100BF1FBD0EB5DB
:102090000121080705F095F9012004F078FF0120DF
:1020A00005F042F800BF412004F0F7FF0028FAD005
:1020B0007F200190FF20029000200090684605F0EC
:1020C00047FB4FF4807005F023F9012005F03BF940
:1020D00005F082FA0EBD33B54FF4FA6101220123F7
:1020E000002015E001F003042CB96424B1FBF4F5E1
:1020F00004FB151434B94FF4C874B1FBF4F504FBB8
:10210000151414B900F5B77001E000F26D10491C08
:10211000BDF800408C42E5D81BE0022A13D101F043
:1021200003042CB96424B1FBF4F504FB151434B991
:102130004FF4C874B1FBF4F504FB15140CB91D3051
:1021400006E01C3004E0541E2D4D55F82440204478
:10215000521C9DF802409442DFD89DF80340E41AD7
:1021600020443CBD1CB5044601A9002005F0D2FB6B
:102170006946002005F059FC9DF8030020809DF879
:102180000100A0709DF80200E0709DF8040020712D
:102190009DF80600A0719DF8050060711CBD13B587
:1021A000DDE90001FFF797FFC0EB00108000C0EBF6
:1021B0000010800000EB4000C0009DF80410C1EB4F
:1021C00001118900C1EB011100EB81009DF80510A0
:1021D000C1EB011100EB81009DF8061008441CBD05
:1021E0001CB56846FFF7BEFFDDE90001FFF7D7FF2A
:1021F0001CBD10B502F0E1FF10BD00000003190086
:1022000068A000081CB50121CB4805F0A7F8012102
:10221000080205F0E7F803208DF8040000208DF88F
:102220000700372000906946C44804F0C5FD1CBD76
:102230001CB50121C0481C3005F090F8012188022E
:1022400005F0D0F84FF4E070009003208DF8040002
:1022500000208DF807006946B94804F0ADFD1CBDAB
:1022600000B58FB00121880505F078F8012108023A
:1022700005F0B8F8B34804F071F800200090B248B7
:102280000190B248029000200390062004900020A4
:1022900005904FF480600690400007908000089001
:1022A0004011099040020A9000200B9001200C90F0
:1022B00000200D900E906946A24804F0F1F801212B
:1022C000A04804F027F90FB000BD00B58FB0012180
:1022D000880505F043F80121880205F083F84FF0E6
:1022E000806000909A4801909A48029000200390E4
:1022F00003200490002005904FF480600690400079
:102300000790800008904011099040020A90002038
:102310000B9001200C9000200D900E90694689488A
:10232000183004F0BDF801218648183004F0F2F8A6
:102330000FB000BD1FB500F00FF9002000904FF462
:10234000403001904FF4804002904FF47060039051
:10235000684603F013F91FBD00B587B00020019057
:1023600001208DF8080000208DF809004FF0805002
:1023700003904FF0106004900020059006208DF827
:10238000180001A970484C3803F0C9F8062301224F
:102390000A216D484C3803F048F9062302220B212C
:1023A00069484C3803F041F9062303220C216648A2
:1023B0004C3803F03AF9062304220E2162484C38C7
:1023C00003F033F9062305220F215F484C3803F050
:1023D0002CF906231A4612215B484C3803F025F9E4
:1023E000012003F011F9012157484C3803F0C8F9D6
:1023F000012155484C3803F0B8F9012152484C38B6
:1024000003F0D3F807B000BD00B587B000200190FD
:1024100001208DF8080000208DF809004FF0805051
:1024200003904FF0106004900020059003208DF879
:10243000180001A946484C3803F071F80623012220
:10244000042143484C3803F0F0F80623022205210A
:102450003F484C3803F0E9F80623032219463C486C
:102460004C3803F0E2F8012139484C3803F088F980
:10247000012137484C3803F078F9012134484C38B1
:1024800003F093F807B000BD10B5FFF7BBFEFFF7F0
:10249000CFFEFFF7E5FEFFF718FFFFF74BFFFFF753
:1024A0005BFFFFF7B1FF10BD2DE9F04107460024A7
:1024B000A04600210D460E4600BF0BE004EB440091
:1024C000224901EB800030F81700451946F100065B
:1024D000601CC4B2012CF1DB0122002328463146E6
:1024E00007F042FC05461FFA85F84046BDE8F0813A
:1024F0002DE9F04107460024A04600210D460E4676
:1025000000BF0BE004EB4400124901EB400030F83F
:102510001700451946F10006601CC4B2012CF1DB1E
:10252000012200232846314607F01EFC05461FFA0B
:1025300085F84046BDE8F0810400400000080240F4
:1025400000140240106402404C200140C0430020AF
:102550004C2201406C02002000B589B0012104200A
:1025600004F02FFF1F4806F02CFD1E4805F096FFD3
:1025700006A806F074F86320ADF818000020ADF846
:102580001A003B2007900020ADF8200006A915484E
:1025900006F031F801A806F0E7F96020ADF8040074
:1025A000102003900120ADF806000220ADF81000C5
:1025B00001A90C4806F0A0F9012241F27071094806
:1025C00006F056F80121074806F080F80122102194
:1025D000044806F0B1FC0121024806F095F809B064
:1025E00000BD00000008004010B540F6BC31854831
:1025F00007F0CAFC10BD1CB50121022004F0AEFE9C
:1026000009220521804804F062FC092206217E4847
:1026100004F05DFC6020009002208DF804008DF82D
:10262000050000208DF8060001208DF8070069469E
:10263000754804F0C1FB754803F098F9012188063C
:1026400004F0BFFE1CBD00B587B001A8FEF778FD01
:102650000E208DF8160000208DF8170001208DF84F
:1026600018000198000CADF80C00019880B2ADF88C
:102670000E000298000CADF81000029880B2ADF880
:1026800012000020ADF8140001208DF8190003A8F5
:1026900003F00FFA07B000BD3EB50024684603F012
:1026A00089FA00208DF8060001208DF8070000202F
:1026B0008DF808008DF809008DF80A008DF80B00E0
:1026C0008DF802008DF8030007208DF80400022029
:1026D0008DF805001420ADF8000069464B4803F062
:1026E0005EF9044614B1012C02D100E000E000BF05
:1026F00000BF01220221454803F0DAFC3EBD08B5C7
:1027000040208DF8000000208DF801008DF80200B7
:1027100001208DF80300684602F08BFE08BD10B55D
:1027200086B0142101A807F02FFC3648B0F8B84B4A
:10273000142101A807F028FC0221344803F020FDF1
:1027400000B301AA0021314803F097FB04EB840198
:102750002C4A02EB8100142201A907F0C1FB294891
:10276000B0F8B80B401C2749A1F8B80B0846B0F8E0
:10277000B80B962802D10020A1F8B80B02212348FB
:1027800003F099FD06B010BD70B505460026002483
:102790001C48B0F8BA0B1B49B1F8B81B884200D1ED
:1027A00023E01848B0F8BA4B04EB8400154A02EB5A
:1027B00080011422284607F093FB04EB8401114AA0
:1027C00002EB8100142107F0DFFB0E48B0F8BA0BD2
:1027D000401C0C49A1F8BA0B0846B0F8BA0B962871
:1027E00002D10020A1F8BA0B0126304670BD10B509
:1027F000FFF7FAFEFFF7FFFEFFF725FFFFF74CFF9D
:1028000010BD0000CC4300200004024000680040DE
:102810001CB50121084604F0A1FD0121102004F09F
:10282000E1FD07220921D94804F051FB07220A21C2
:10283000D64804F04CFB00208DF8060001208DF8EE
:10284000070002208DF804008DF8050000020090BA
:102850006946CE4804F0B0FA4FF4806000906946B3
:10286000CA4804F0A9FA1CBD00B58FB00121880543
:1028700004F074FDC64803F071FDC64801900020C5
:1028800005904FF480600690002007900890099012
:102890004FF400300A9000200B9001200C90002093
:1028A0000D900E904FF00060009040200390BA48C9
:1028B00002904FF4807004906946B54803F0F0FD33
:1028C00001221021B24803F0B2FE00220821B048D4
:1028D00003F0ADFE01228021AE48001F06F0B3FDDB
:1028E0000FB000BD10B5002407E02246641CAA4BBF
:1028F000D118AA4A5068FDF700FDFF2C05D8A7495A
:102900004868FDF727FD0028EFD0A148001D0460AE
:10291000A1489F490C31086040F226619D48001F84
:1029200006F00CFE01221021994803F080FE0022DF
:1029300040F225519748001F06F08EFD01228021AC
:102940009448001F06F07FFD0121914803F0E2FD4D
:1029500010BD70B505460C464FF47A66012C03D0C5
:10296000B4F5807F00D80CB9002070BD37E08B48EB
:102970000068007808BB012088490968087000BF1A
:10298000002086494968086084494968486083494D
:102990004968C86000BF09E015F8011B7F4A50680C
:1029A000FDF78EFC08B1641E00E001E0002CF3D1BD
:1029B00000BFFFF797FF0120D7E7761E7EB9002002
:1029C00076490968087000BF74494968086073490E
:1029D0004968486071494968C86000BFC5E7301E52
:1029E000A6F10106C3D10120BFE710B54FF01D517C
:1029F000674803F008FE6A49654803F035FE98B160
:102A00000021634803F086FD012240F226616148FF
:102A1000001F06F021FD002210215D4803F007FE93
:102A20005F495B4803F04AFE10BD10B500BF0020AF
:102A30005A4949680860594949684860574949688E
:102A4000C86000BF00BF554989680860534989685C
:102A5000486052498968C86000BF504909680870D9
:102A60004FF480714F4807F06DFA4FF480614E4883
:102A700007F068FA4FF48071474807F063FA10BD19
:102A800070B505460C4600260CB9701E70BD434952
:102A90008868FDF75FFC10B14FF0FF30F6E715E0F6
:102AA000002240F226613B48001F06F0D5FC294673
:102AB0006D1C3A4A9068FDF720FC012240F2266125
:102AC0003448001F06F0C8FC641E761C002C05DD8F
:102AD00032498868FDF73EFC0028E1D03046D5E752
:102AE00010B50E212B48001F06F0DBFC18B1294859
:102AF000001F06F02AFC40F225512648001F06F070
:102B0000E6FC10B3002240F225512248001F06F0D7
:102B1000A3FC2048001F06F018FCC4B21F498868B7
:102B20002146FDF7CDFB21480068401C1F49086085
:102B300040F225511748001F06F000FD012240F227
:102B400025511448001F06F087FC40F22661114809
:102B5000001F06F0BCFCB8B1002240F226610D480F
:102B6000001F06F079FC012240F225510948001FA0
:102B700006F072FC40F226610648001F06F0DEFCFB
:102B8000002006490968087010BD000000000240DE
:102B9000B8640240041001408854002098A0000846
:102BA00000800028884F002088500020A0020020CC
:102BB0000146002002E0491C421CD0B20A78002ADB
:102BC000F9D170472DE9F04105460E46144600271D
:102BD000FA48007820B1112020700020BDE8F08173
:102BE0002878012808D0022807D0032802D004281A
:102BF00004D100E000BF00BF00BF03E0012020704F
:102C00000020EBE700BF00F0F7FD074628693060C1
:102C10003068FFF7CDFF8046384600F0F1FD002018
:102C200020704046DAE72DE9F04105460E4614468D
:102C30000027E248007818B112202070BDE8F0812A
:102C40002878012808D0022807D0032802D00428B9
:102C500004D100E000BF00BF00BF02E001202070EF
:102C6000ECE700BF00F0C8FD07462E61384600F0D3
:102C7000C7FD0020207000BFE0E7F0B5024612F863
:102C8000284F95785678283A0B4618680FE000F1DF
:102C90000B073F5DB74300F10B0C0CF8047067465F
:102CA0003F5D17B9877AAF4387721B1D18680028EC
:102CB000EDD1F0BDC249C34A1278885CC249095CB3
:102CC000BF4A515C01EBC001C04A1170704710B59A
:102CD000002400F091FD0446B8480078F8B9BC48DB
:102CE0000078E0B9FFF7E6FFBA48B849097850F82C
:102CF0002100B9490860B5480078B8490978884288
:102D00000DD0B5480068C06A401CB3490968C86264
:102D1000B3480068401CB249086000F084FD2046BA
:102D200000F06EFD10BD70B501460024AD4D2D685C
:102D3000EC60AC4C246821610B4618681BE0A94C80
:102D4000246894F8285000F10B04645DA54D2D68AB
:102D500095F829502C43A34D2D6895F8286000F173
:102D60000B05AC55847A9F4D2D6895F82A502C435D
:102D700084721B1D18680028E1D19A4C246894F8CD
:102D80002820914CA45C974D2D6895F82950AC43B0
:102D90008D4DAC542C46A45C44B9924C246894F8F4
:102DA0002A50884C2478AC43864D2C7070BD2DE998
:102DB000FF4F83B081460E461546DDF84080002067
:102DC00000903060CA46DAF8004018E02078062803
:102DD00007D2DFE800F00604050307080AE009E06F
:102DE00008E000BF00BF012088F80000002007B005
:102DF000BDE8F08F00BF0AF1040ADAF80040002CA9
:102E0000E4D16E48007820B1022088F8000000204C
:102E1000EDE76F48007820B10D2088F80000002011
:102E2000E5E700F0E9FC0090002002908346019065
:102E3000CA46DAF800405DE02078062849D2DFE88B
:102E400000F048172A03494A208960B12089401EB2
:102E5000208110C601200290002001C50BF1010065
:102E60001FFA80FB03E0019840F0010001903CE074
:102E7000606858B1606801C50020606010C601201C
:102E800002900BF101001FFA80FB03E0019840F073
:102E90000200019029E06768F88AA8B13969081D25
:102EA0003861086801C5B9683869884201D1786815
:102EB0003861F88A401EF88210C6012002900BF19A
:102EC00001001FFA80FB03E0019840F0040001902C
:102ED0000BE000BF00BF009800F092FC00203060C3
:102EE000012088F80000584681E700BF0AF1040A73
:102EF000DAF80040002C9FD10298012809D1002067
:102F00003060009800F07CFC002088F800005846F3
:102F10006DE73448006890F82400019941F0800181
:102F200008433049096881F8240000202D490968C8
:102F300081F825002B490698096808624846FFF782
:102F4000F2FE009800F05CFCFFF7C1FE00F054FCBC
:102F500000902448006890F8250020B101281BD07B
:102F6000022818D100E000BF1E480068C4683CB1C8
:102F700010C6002030600BF101001FFA80FB09E051
:102F800001201849096881F825004946154800685C
:102F9000FFF773FE06E000BF494612480068FFF7DE
:102FA0006CFE00BF00BF0F48006890F82500D8B144
:102FB000012842D002283FD138E00000BD020020A5
:102FC000A4A00008C1020020C2020020C00200200C
:102FD000BE020020F85C0020D8020020BF020020C2
:102FE000A4020020D0020020207806280DD2DFE8BD
:102FF00000F00C0607030D0E002001C511E000BF14
:10300000FE480068406901C50BE000BF00BF0098A2
:1030100000F0F6FB00203060012088F800005846E0
:10302000E5E600BF002088F800000CE0002001C5A4
:103030000E2088F8000006E000BF002001C50A202D
:1030400088F8000000BF00BF0020EC49096881F843
:103050002400EA49096881F82500E8490968C86040
:10306000E64909680861E54909684861009800F087
:10307000C7FB5846BBE6002400BF02E0642001F015
:10308000EBFFDF4800780028F8D0DE4800686421B4
:10309000B0FBF1F0DB4908600846006828B9002061
:1030A000D9490870FF2001F019FF00BF00F0A4FB10
:1030B0000446D6480068D64908600020D349086015
:1030C000204600F09DFBD2480068CE490968B0FB5D
:1030D000F1F0C0F16400CC49087000F0E9FB322047
:1030E00001F0BAFFE2E708B51F23CA4A0021AFF298
:1030F000790001F011FD6A46C7A11F2001F070FEA2
:1031000008BD002400BF00BF00F076FB0446BF48A6
:103110000068401CBD490860204600F071FB00F0CB
:10312000C3FBF1E708B52023BF4A0021AFF22D0011
:1031300001F0F2FC6A46BDA1202001F051FE08BD5D
:1031400004E0002200F8012B4A1E91B20029F8D1B8
:10315000704770B54FF44871B848FFF7F1FF00248D
:1031600011E0601C85B204EB8400B44901EB8003DC
:1031700005EB850001EB8006002018705E60B0A0B2
:103180001861601C84B2272CEBD304EB8400AB499C
:1031900001EB8003002018705860A9A01861084650
:1031A000A849086070BD70B54FF41061A648FFF7DC
:1031B000C7FF8421A548FFF7C3FF00230FE0581C79
:1031C000C5B203EBC300A04901EBC00405EBC50089
:1031D00001EBC00666609AA02064581CC3B21F2B86
:1031E000EDD303EBC300984901EBC00400206060FD
:1031F00093A0206400209649086093489549086090
:1032000070BD0021944A1170002004E00021934A0F
:103210001154411CC8B20528F8D30021904A1170FE
:10322000904A1170904A1160744A116070470020F2
:103230008E4908608E4908708E4908708E49087062
:103240008E4908708E4908607049086070490860AE
:103250006C4908606A490870704710B500F020FB9F
:10326000FFF7E5FFFFF7CDFFFFF79DFFFFF771FFCA
:1032700000F06CFF01F05DF801F05FFBFFF752FF1B
:10328000FFF731FF00F00DFB10BD7C4800780128EE
:1032900008D177480078FF2804D275480078401C90
:1032A00073490870704710B50024744800780128ED
:1032B00030D100F0A1FA04466D48007820B16C4886
:1032C0000078401E6A49087069480078F8B9694872
:1032D0000078E0B9FFF7EEFC5C486249097850F8E5
:1032E0002100614908605F4800785D49097888429B
:1032F0000DD05D480068C06A401C5B490968C8621F
:103300005F480068401C5E49086000F091FA204662
:1033100000F076FA10BD10B5002458480078012856
:1033200011D100F069FA04465148007840B951487B
:103330000078FF2804D24F480078401C4D4908709F
:10334000204600F05DFA10BD10B500244B4800780F
:10335000012821D100F050FA044646480078C0B157
:1033600044480078401E434908700846007860B918
:103370003F48007828B9204600F042FAFFF7A7FC42
:103380000AE0204600F03CFA06E0204600F038FA59
:1033900002E0204600F034FA10BD10B5374800783E
:1033A00090B9FFF787FC2F4800782D49087027480F
:1033B0002C49097850F821002B490860084600681C
:1033C0000E49086000F01FFA10BD10B5002402205D
:1033D00001F042FE00F010FA044600200B4908609C
:1033E000204600F00DFA322001F036FE00F004FA1B
:1033F0000446064800680349086043E0D002002004
:10340000BC020020B4020020B0020020CC02002048
:10341000B8020020F45A002075432F4F532D49491C
:103420002053746174000000F45C002075432F4F3A
:10343000532D49492049646C6500000088550020DF
:103440003F000000A80200207C5D0020F85C002006
:10345000DC020020D4020020C1020020C2020020B1
:10346000BF020020C0020020D8020020EC02002091
:10347000BD020020BE020020C8020020C7020020BA
:10348000A40200200120D0490870204600F0B8F9BD
:1034900010BD70B5002600F05BFA00F0ADF90646ED
:1034A000CA480068401CC9490860304600F0A8F9C5
:1034B000C7480078012853D1C648007820B10128B8
:1034C00004D0022809D103E001250BE0002509E022
:1034D00001250120BF49087004E001250020BD49F5
:1034E000087000BF00BF05B970BDBB48046833E079
:1034F00000F082F90646206A50B3206A401E20621E
:10350000206A28BB94F8240000F0370040B114F87A
:10351000240F00F0C800207001206070243C02E0FD
:10352000002084F8250094F8240000F0080078B901
:103530002834A078A94909780843A8490870207858
:10354000A749085C6178084314F82819A44A505424
:103550006468304600F054F994F826002028C7D15A
:1035600000BFC1E740F223107047704710B590F8D4
:10357000282001F10B039B5C90F82940A34301F143
:103580000B04A35423469B5C23B98B7A90F82A4002
:10359000A3438B7210BD2DE9F04F05460F469046B0
:1035A0009946A87A8F490E5C05F10B00805D11F8F1
:1035B00000B00BEBC60000F0FF0A8B4850F82A4021
:1035C00000201434E0602760207C20EA080020748A
:1035D00084F81190207C143C00F0080068B994F83D
:1035E0002A007E49097808437C4908707C48805D40
:1035F00094F8291008437A49885529462046FFF750
:10360000B5FF206920B120462169FFF736FBE56050
:103610005046BDE8F08F10B5744A1268D060734A06
:10362000126892F8283000F10B02D25C6F4B1B68D5
:1036300093F829301A436D4B1B6893F8284000F12A
:103640000B031A55827A694B1B6893F82A301A4388
:103650008272664A126892F82810614A525C634B83
:103660001B6893F829309A435D4B5A541A46525CB2
:1036700042B95E4A126892F82A30584A12789A4340
:10368000564B1A7010BD014600228A72002005E0D8
:10369000002301F10B021354421CD0B20528F7D3CA
:1036A000704705E011F8013B00F8013B531E9AB248
:1036B000002AF7D170472DE9F84F05460F4690468E
:1036C0009946DDE90AAB0020009000F095F80090E3
:1036D00047480468002C71D00C3454F8080C444955
:1036E0000860009800F08CF844F80C7CA576002067
:1036F00020766076606100BF00BF00BF0C980C9020
:1037000000BF0020E077E810207705F00700E076A2
:10371000217F01208840A077E17E012088406077EA
:10372000002020606060E060A0602062A0626062B3
:10373000E0622063AFF2F82060630C3C002606E0F4
:10374000002104F1440040F82610701CC6B2002E7F
:10375000F6D0204600F0FBF8204600F0A3F800F079
:103760004BF80090204840F825401B4800686060F6
:103770000020A0601848006810B1174800688460F5
:10378000154804602834A07814490978084313497F
:10379000087020781249085C6178084314F82819E9
:1037A0000F4A505413480078401C12490870009882
:1037B00000F026F80020BDE8F88FFFE7009800F041
:1037C0001FF84220F7E70000BC020020EC020020B6
:1037D000C7020020E0020020DC020020C10200201D
:1037E000C2020020A4A00008F85C0020D002002043
:1037F000D4020020C8020020EFF3108072B6704798
:1038000080F31088704724484FF0FF0101700020BA
:1038100080F309881D480121017020484FF0805134
:10382000016062B6FEE71D484FF0805101607047AD
:103830001A484FF0805101607047EFF3098028B1BA
:10384000203880E8F00F12490968086000B50A487E
:1038500080475DF804EB0B480B490A7802700C486E
:103860000C490A680260106890E8F00F203080F37D
:1038700009884EF0040E70474D390008A732000841
:10388000BD020020BF020020C0020020C7020020AD
:10389000D0020020D802002022ED00E004ED00E07C
:1038A000704770477047704710B5FCF705FD10BDB5
:1038B000704770B5044610464FF080750560051FCF
:1038C00028462C606FF00106051F28462E604FF039
:1038D0001236051F28462E604FF00336051F284676
:1038E0002E604FF00236051F28462E607610051F09
:1038F00028462E60051F284629604FF01136051F07
:1039000028462E604FF01036051F28462E604FF0D7
:103910000936051F28462E604FF00836051F284639
:103920002E604FF00736051F28462E604FF00636F2
:10393000051F28462E604FF00536051F28462E60CD
:103940004FF00436051F28462E6070BD7047704743
:10395000704710B5FFF799FCFFF79BFDFFF7A3FC3D
:1039600010BD1FB5684603F064FC019804B010BD9B
:1039700010B5FFF7F6FF4FF4FA71B0FBF1F4601EDB
:103980004FF0E02148610846006940F005000861F9
:103990000846006940F00200086110BD2DE9F05FA3
:1039A00004460F4691461E464FF0000B207805282E
:1039B00004D0012030700020BDE8F09F09F0800A9B
:1039C000BAF1000F04D029F080094FF0010801E09E
:1039D0004FF0000800203070FFF70EFF8346B9F16A
:1039E000000F2CD0B9F1010F3BD0B9F1020F03D079
:1039F000B9F1030F46D111E0208900EA0705BD4265
:103A000006D1B8F1010F05D12089A843208101E03A
:103A1000702030705846FFF7F3FE3AE0208900EA44
:103A2000070535B1B8F1010F05D12089A8432081E0
:103A300001E0702030705846FFF7E2FE29E020894F
:103A400027EA0005BD4206D1B8F1010F05D1208952
:103A50002843208101E0702030705846FFF7D0FEE7
:103A600017E0208927EA000535B1B8F1010F05D12B
:103A700020892843208101E0702030705846FFF7EC
:103A8000BFFE06E05846FFF7BBFE00256F203070F2
:103A900000BF00BF28468FE72DE9F04106460D46DE
:103AA0000027FA48007820B1102028700020BDE8D7
:103AB000F081FFF7A1FE0746F548046884B100686D
:103AC0004068F3490860052020702681002060606E
:103AD000F0A0E0603846FFF793FE0020287004E075
:103AE0003846FFF78DFE722028702046DFE730B59C
:103AF00001464A6808682AB9CC68606028B1002588
:103B0000456002E0106000B142608B6800259D6155
:103B100030BDF0B506460F46B46800201C34606026
:103B20002780207A00F0DF00207200206072207A67
:103B30001C3C88B92834A078D74909780843D6496D
:103B400008702078D549085C6178084314F8281972
:103B5000D24A5054012500E000253046FFF7C7FF48
:103B60002846F0BD2DE9F0470446894615464FF03A
:103B7000000AC648007820B10F2028702046BDE812
:103B8000F0872078052803D0012028702046F6E72A
:103B9000FFF732FE8246606808B1012700E0002787
:103BA000B9F1000F03D0B9F1010F3CD119E08FB981
:103BB000B8A0E06000202070B54800686060002078
:103BC0002081B34804605046FFF71AFE0020287099
:103BD000002605E05046FFF713FE492028702646D0
:103BE00028E0D4F8048005E000214046FFF791FF6B
:103BF000D8F80080B8F1000FF6D1A6A0E060002050
:103C00002070A3480068606000202081A048046004
:103C10005046FFF7F5FD012F01D1FFF758F80020BE
:103C20002870002606E05046FFF7EAFD07202870BE
:103C3000264600BF00BF3046A1E72DE9F04105460A
:103C40000E46144600279148007820B111202070BC
:103C50000020BDE8F081FFF7CFFD07462878052852
:103C600006D03846FFF7CCFD012020700020F0E799
:103C7000E86830603068FEF79BFF80463846FFF703
:103C8000BFFD002020704046E3E72DE9F0410546E6
:103C90000E46144600277D48007818B11220207087
:103CA000BDE8F081FFF7A8FD07462878052805D074
:103CB0003846FFF7A5FD01202070F1E7EE60384699
:103CC000FFF79EFD0020207000BFE9E7F0B5144625
:103CD000059E734F3F6897F8247047F02007DFF880
:103CE000C0C1DCF800C08CF824700027DFF8B0C138
:103CF000DCF800C08CF82570694F3F683E62684F61
:103D00003F68B9610C828B74654F3F688F6047686C
:103D10000F6000274F60C860456805B16960416069
:103D20005F4F3F6897F828205C4FBF5CDFF870C199
:103D3000DCF800C09CF829C027EA0C07DFF85CC15A
:103D40000CF802706746BF5C5FB9554F3F6897F843
:103D50002AC0514F3F7827EA0C07DFF83CC18CF8A6
:103D60000070F0BD2DE9F04F89B005460F46914631
:103D70009A46129E002002904448007828B1022002
:103D80003070002009B0BDE8F08F4648007818B1C7
:103D90000D2030700020F5E72878052803D0012099
:103DA00030700020EEE709F0800BBBF1000F04D06B
:103DB00009F07F094FF0010801E04FF00008FFF71C
:103DC0001BFD0290B9F1000F4AD0B9F1010F78D074
:103DD000B9F1020F03D0B9F1030F71D120E02889A6
:103DE00000EA0704BC420FD1B8F1010F02D12889C3
:103DF000A04328812A48006884830298FFF700FDC9
:103E0000002030702046BDE74B463A4604A92846BC
:103E1000CDF800A0FFF75AFF0298FFF7F1FC78E019
:103E2000288900EA07047CB1B8F1010F02D1288982
:103E3000A04328811A48006884830298FFF7E0FCB9
:103E40000020307020469DE74B463A4604A928469C
:103E5000CDF800A0FFF73AFF0298FFF7D1FC58E039
:103E6000288927EA0004BC421ED1B8F1010F02D113
:103E70002889204328810A48006884830298FFF734
:103E8000BFFC0020307020467CE71AE0BD02002015
:103E9000AC0200203F000000C1020020C20200204E
:103EA000D0020020BE0200204B463A4604A9284614
:103EB000CDF800A0FFF70AFF0298FFF7A1FC28E069
:103EC0001FE0288927EA00047CB1B8F1010F02D174
:103ED000288920432881B148006884830298FFF72D
:103EE0008FFC0020307020464CE74B463A4604A930
:103EF0002846CDF800A0FFF7E9FE0298FFF780FC06
:103F000007E00298FFF77CFC00246F203070204609
:103F100038E700BFFEF7DBFEFFF76EFC02909F481C
:103F2000006890F8250020B39C48006890F82500B0
:103F3000039000209949096881F8250004A8FFF73B
:103F4000D6FD00209549096881F824000298FFF702
:103F500057FC00240398012805D0022802D10E2026
:103F6000307003E000BF0A20307000BF00BF204661
:103F700008E78A480068848BB8F1010F1ED1B9F1B7
:103F8000000F0ED0B9F1010F0CD0B9F1020F03D020
:103F9000B9F1030F0AD100E000BF2889A0432881AE
:103FA0000BE000BF28892043288106E00298FFF734
:103FB00027FC6F2030700020E4E600BF0298FFF776
:103FC0001FFC002030702046DCE670B50025FFF7AE
:103FD00013FC054671480068848B2846FFF710FCE7
:103FE000204670BD2DE9FC5F0446894692461E4678
:103FF000002000902078052804D001203070002097
:10400000BDE8FC9FFFF7F8FB0090BAF1000F03D06A
:10401000BAF1010F0AD104E0208920EA09002081C9
:104020000BE0208940EA0900208106E00098FFF7B4
:10403000E7FB712030700020E2E700BF4FF0000B7B
:10404000656855E0A87C40B3012838D0022802D02A
:10405000032844D111E02089298A00EA0107288A2F
:10406000B84209D139462846FFF753FD8046B8F1DA
:10407000010F01D14FF0010B38E02089298A00EAB5
:1040800001074FB139462846FFF743FD8046B8F196
:10409000010F01D14FF0010B28E0288A218920EA85
:1040A0000107288AB84209D139462846FFF731FD71
:1040B0008046B8F1010F01D14FF0010B16E0288ABC
:1040C000218920EA01074FB139462846FFF721FD33
:1040D0008046B8F1010F01D14FF0010B06E00098C6
:1040E000FFF78EFB6F203070002089E700BF2D683E
:1040F000002DA7D10098FFF783FBBBF1010F01D181
:10410000FEF7E5FDFFF778FB00902089019000980D
:10411000FFF776FB00203070019871E72DE9F04140
:1041200004460D4600272078052804D00120287079
:104130000020BDE8F081FFF75FFB0746268938467F
:10414000FFF75EFB002028703046F2E72DE9F041D2
:1041500050211348FEF7F4FF00250EE0681C86B2DC
:104160000F4800EB051400EB061700202070676075
:10417000AFF2E020E060681C85B2042DEED3084861
:1041800000EB0514002020706060AFF2F820E060C2
:10419000034804490860BDE8F0810000D002002017
:1041A000A8580020AC0200202DE9FC5F05460F4610
:1041B00091469A4600200090FFF71EFB00906F4842
:1041C0000468006820B16D48006840686B49086069
:1041D0000098FFF715FB2CB95A208AF80000002040
:1041E000BDE8FC9FA8462E46781E01904FF0000BBC
:1041F00005E04E44C8F80060B0460BF1010B019891
:104200008345F6D30020C8F800002560656027616B
:10421000E760C4F808908AF800002046E0E72DE93E
:10422000F04104460D460027FFF7E6FA07462069ED
:1042300068B16668306860602069401E2061384659
:10424000FFF7DEFA002028703046BDE8F0813846DE
:10425000FFF7D6FA5D2028700020F6E72DE9F0413F
:1042600006460C46154600274548007820B1112027
:1042700028700020BDE8F081FFF7BEFA074670699C
:1042800020602068FEF794FC80463846FFF7B8FAB5
:10429000002028704046EDE72DE9F04105460E4626
:1042A000144600273648007818B112202070BDE867
:1042B000F081FFF7A1FA07466E613846FFF7A0FAD2
:1042C0000020207000BFF2E770B504460D460026BE
:1042D000FFF792FA0646D4E90310884204D3304629
:1042E000FFF78EFA5E2070BD606828606560206907
:1042F000401C20613046FFF783FA0020F3E770B5D9
:1043000005460C460026FFF777FA06462868206027
:1043100068686060A868A060E868E060286920615B
:104320003046FFF76DFAD4E90301401A60610020BE
:1043300070BD70B578211348FEF702FF00240EE02F
:1043400004EB44000F4901EBC005601C00EB40008A
:1043500001EBC00068600CA06861601C84B2042C92
:10436000EED304EB4400074901EBC0050020686070
:1043700005A0686108460149086070BDE40200209C
:10438000BD0200207C6600203F0000002DE9F041C6
:1043900006460D464FF000083078022804D0012070
:1043A00028700020BDE8F081FFF726FA8046746887
:1043B000E08A78B12169081D20610F68E08A401EFB
:1043C000E082A1682069884201D1606820610020F4
:1043D000287002E01F20287000274046FFF710FADF
:1043E0003846DFE72DE9F04106460F464FF000085A
:1043F000F748007810B10020BDE8F081FFF7FCF924
:104400008046F4480468006820B1F24800684068BB
:10441000F04908604046FFF7F3F9FCB1FFF7ECF90B
:104420008046ED480568D5B100680068EA49086033
:104430004046FFF7E5F96E6006EB8700A860EE6086
:104440002E61AF820020E8820220207000202081AF
:104450006560E2A020612046FFF715F908E0DD481D
:1044600000686060DB4804604046FFF7C9F900243B
:104470002046C1E72DE9F0470446894615464FF02E
:10448000000A2078022804D0012028702046BDE8C8
:10449000F087CF48007818B10F2028702046F6E743
:1044A000FFF7AAF98246A07A10B14FF0010801E0A7
:1044B0004FF00008B9F1000F03D0B9F1010F49D155
:1044C00021E0B8F1000F17D1C4A020616668C2488E
:1044D00000683060C048066000202070BD48006859
:1044E000606000202081BB4804605046FFF788F9D7
:1044F00000202870002705E05046FFF781F9492089
:10450000287027462DE005E00023042219462046A6
:10451000FFF741F8A07A0028F6D1B0A020616668C4
:10452000AD4800683060AC48066000202070A948A3
:104530000068606000202081A64804605046FFF7B4
:104540005FF9B8F1010F01D1FEF7C1FB002028701F
:10455000002706E05046FFF753F90720287027464A
:1045600000BF00BF384692E770B505460026FFF74A
:1045700043F906466C686068E0606068206100206E
:10458000E0823046FFF73CF9002070BD2DE9F0478E
:104590000746884615464FF000093878022804D0AF
:1045A000012028700020BDE8F0878948007818B104
:1045B000022028700020F6E78948007818B10D2005
:1045C00028700020EFE7FFF717F981467C68E08A42
:1045D00098B12169081D20610E68E08A401EE082C2
:1045E000A1682069884201D1606820614846FFF7D0
:1045F00007F9002028703046D5E77A48006890F81F
:10460000240040F004007749096881F82400002064
:104610007449096881F8250072480068C0F8208054
:104620003846FEF7F8FF4846FFF7EAF8FEF74FFB7B
:10463000FFF7E2F881466B48006890F8250020B14A
:1046400001280DD002280AD105E0664800684669B5
:10465000002028700DE000260E20287009E000BF21
:10466000394660480068FEF781FF00260A2028705E
:1046700000BF00BF00205B49096881F82400594948
:10468000096881F8250057490968C86055490968D3
:1046900008615449096848614846FFF7B1F8304657
:1046A00081E72DE9F04104460F4615464FF000081A
:1046B0002078022804D0012028700020BDE8F08175
:1046C000FFF79AF88046A07A20B300267FB1012F29
:1046D0000CD107E00223042200212046FEF75BFFF5
:1046E000701CC6B2A07A0028F4D109E000BF0223F2
:1046F000042200212046FEF74EFF701CC6B200BF08
:1047000000BF4046FFF77CF8FEF7E1FA0E20287064
:104710003046D3E74046FFF773F80020287000BF0B
:10472000CCE72DE9F04105460E46002728780228FF
:1047300002D00120BDE8F081FFF75EF80746A87AB5
:1047400060B10023042231462846FEF724FF384694
:10475000FFF756F8FEF7BBFA0020EBE76C68E08A3B
:10476000A18A884204DB3846FFF74AF81E20E1E7B9
:10477000E168081DE0600E60E08A401CE082D4E938
:104780000210884201D16068E0603846FFF738F8CF
:104790000020CFE72DE9F04105460E460027287896
:1047A000022802D00120BDE8F081FFF725F8074676
:1047B000A87AC8B10023042231462846FEF7EBFE52
:1047C0003846FFF71DF8FEF782FA0020EBE70000FD
:1047D000BD020020A8020020E80200203F000000E7
:1047E000BE020020D00200206C68E08AA18A8842C4
:1047F00004DB3846FFF704F81E20D4E7616820691F
:10480000884201D1A06820612069001F20612069D1
:104810000660E08A401CE0823846FEF7F1FF002087
:10482000C1E72DE9F04105460F4616464FF0000856
:104830002878022802D00120BDE8F081FEF7DCFFD5
:104840008046A87AE8B106F0010050B105E00023E7
:10485000042239462846FEF79EFEA87A0028F6D1A3
:1048600005E00023042239462846FEF794FE404620
:10487000FEF7C6FF06F0040008B9FEF728FA00208C
:10488000DAE76C68E08AA18A884204DB4046FEF7DA
:10489000B7FF1E20D0E706F0020058B1616820691A
:1048A000884201D1A06820612069001F2061206931
:1048B000076009E0E168081DE0600F60D4E90210BC
:1048C000884201D16068E060E08A401CE082404696
:1048D000FEF796FF0020AFE72DE9F04705460C46AE
:1048E0004FF0000A2878022802D00120BDE8F087A6
:1048F000FEF782FF8246A87A607305F10B0804F187
:104900000809002705E018F8010B09F8010B781CCD
:10491000C7B2052FF7D36E68F08A18B13069006806
:10492000206001E000202060F08AA080B08AE08052
:104930005046FEF765FF0020D8E72DE9F0416021E1
:104940001048FEF7FDFB00240DE0601C86B204EB6E
:1049500044000C4901EBC00506EB460001EBC00723
:104960002F60601C84B2032CEFD304EB4400054994
:1049700001EBC00500202860084603490860BDE837
:10498000F0810000F4660020E80200202DE9F34FDA
:1049900085B0884600200190FEF72EFF0190FA486E
:1049A00050F8280030B10198FEF72AFF282007B000
:1049B000BDE8F08F0598FF2804D1F448006890F80E
:1049C00026000590F049059851F8205025B9019826
:1049D000FEF716FF2920EAE7012D04D10198FEF722
:1049E0000FFF4320E3E74FEAE80708F007000390D2
:1049F0000120B84000F0FF0901210398814001F037
:104A0000FF0A0021E04A059842F82010104640F8BD
:104A1000285095F8286095F82A00029095F829B05A
:104A2000DB48805D00EA0B00D0B1D948805D20EA08
:104A30000B00D74988550846805D28B9D5480078CD
:104A400002998843D3490870D248007840EA0900A7
:104A5000D0490870CE48C05D40EA0A00CC49C8552C
:104A6000EC68D4B104F10B00805D20EA0B0004F186
:104A70000B0188550846805D18B9A07A02998843D1
:104A8000A072A07A40EA0900A07204F10B00C05D98
:104A900040EA0A0004F10B01C855286930B32869BF
:104AA0000490049804681FE004F10B00805D20EA84
:104AB0000B0004F10B0188550846805D18B9A07AF7
:104AC00002998843A072A07A40EA0900A07204F11A
:104AD0000B00C05D40EA0A0004F10B01C8550498C0
:104AE000001D049004980468002CDDD185F8268010
:104AF00085F82870039885F8270085F82A9085F8AE
:104B000029A00198FEF77CFEA3480078012801D176
:104B1000FEF7DDF800204AE72DE9FE4F06460F4676
:104B200090461C464FF00009FEF766FE81469B4802
:104B3000007828B14846FEF763FE3C20BDE8FE8FB2
:104B4000914850F8240060BB01208F4941F82400AF
:104B50004846FEF755FE0023424639463046FEF7EA
:104B6000A8FE82460020009001900346024651466E
:104B700002902046FEF79FFD054635B9864800782D
:104B800001280CD1FEF7A3F809E0FEF735FE8146B7
:104B900000207D4941F824004846FEF731FE2846B2
:104BA000CCE74846FEF72CFE2820C7E72DE9F04168
:104BB000054600277948007810B14020BDE8F08113
:104BC000202D01D13E20F9E7FEF716FE0746FF2D06
:104BD00003D16E48006890F826506B4850F8254085
:104BE00024B93846FEF70CFE4320E7E7012C04D138
:104BF0003846FEF705FE3D20E0E714F8280F64492B
:104C0000085C617888432178614A505414F8280977
:104C10001146085C30B994F82A105E480078884341
:104C20005C490870E06818B12046E168FEF79EFC18
:104C3000206918B120462169FEF71FF8A66916B150
:104C40003046FEF754FF0020206284F8240084F8E8
:104C5000250053480078FF2804D251480078401CB2
:104C60004F4908703846FEF7CBFDFEF77EFCFEF795
:104C7000C3FD07464A48007820B149480078401EE5
:104C8000474908702046FEF70EFE46480078401E51
:104C90004449087000203C4941F82500A06830B91B
:104CA00000206168886040496068086005E0D4E9D8
:104CB00001014860D4E9011088603C4800686060E8
:104CC0003A4804603AA020643846FEF799FD32481D
:104CD0000078012801D1FDF7FAFF00206EE72DE9E9
:104CE000F04104460027202C02D13E20BDE8F0818F
:104CF000FF2C0BD1FEF780FD07462448006890F892
:104D00002B603846FEF77CFD3046EFE7FEF774FD7A
:104D100007461D4850F8245025B93846FEF770FD67
:104D20004320E3E7012D04D13846FEF769FD3D201D
:104D3000DCE73F2085F82B003846FEF761FD0020B8
:104D4000D4E72DE9F04706460F4614464FF0000819
:104D50001248007820B1112020700020BDE8F087B3
:104D6000FEF74AFD8046FF2E03D10848006890F800
:104D70002660054850F82650E5B94046FEF740FD4C
:104D8000432020700020E9E7F85C0020D0020020DA
:104D9000C2020020C1020020C7020020BD02002084
:104DA000BE020020C8020020DC020020D402002045
:104DB0003F000000012D06D14046FEF721FD4320B3
:104DC00020700020CAE7286C38603868FDF7F0FED4
:104DD00081464046FEF714FD002020704846BDE79E
:104DE0002DE9F04106460F4614464FF0000894485E
:104DF000007818B112202070BDE8F081FEF7FCFCAD
:104E00008046FF2E03D18F48006890F826608E48B8
:104E100050F826502DB94046FEF7F2FC4320207092
:104E2000EAE7012D05D14046FEF7EAFC4320207059
:104E3000E2E72F644046FEF7E3FC0020207000BF4D
:104E4000DAE770B505460026FEF7D6FC06467E4832
:104E500050F8254024B93046FEF7D2FC462070BDFC
:104E6000012C04D13046FEF7CBFC4320F7E794F841
:104E7000240000F0080060B314F8240F00F0F700DD
:104E8000207014F82409F8B9206AC8B92834A07829
:104E90006E49097808436D49087020786C49085CB0
:104EA0006178084314F82819694A50543046FEF7CF
:104EB000A7FC68480078012809D1FDF708FF06E043
:104EC0003046FEF79DFC02E03046FEF799FC0020DC
:104ED000C5E73046FEF794FC4420C0E72DE9F041D9
:104EE00005464FF00008FEF787FC8046FF2D05D1F0
:104EF0005448006890F82650012608E051480068A0
:104F000090F82600A84201D1012600E000264E4874
:104F100050F825402CB94046FEF772FC4820BDE809
:104F2000F081012C04D14046FEF76AFC4320F6E7ED
:104F300094F828704648C05D94F829108843444985
:104F4000C8550846C05D30B994F82A103F4800782B
:104F500088433E49087094F8240040F0080084F823
:104F600024004046FEF74CFC012E01D1FDF7AFFEB8
:104F70000020D4E72DE9F04105460E460027FEF754
:104F80003BFC0746FF2D03D12E48006890F82650C1
:104F90002D4850F825402CB93846FEF731FC292021
:104FA000BDE8F081012C04D13846FEF729FC4320EE
:104FB000F6E7482221463046FEF773FB3846FEF7F7
:104FC0001FFC0020ECE72DE9F04704460E4617468B
:104FD0004FF00009FEF710FC8146FF2C02D1194862
:104FE000056802E0184850F8245005F1440050F8D4
:104FF00026804846FEF704FC002038704046BDE895
:10500000F0872DE9F04704460E46174698464FF0C4
:105010000009FEF7F1FB8146FF2C02D10948056823
:1050200002E0094850F8245005F1440040F8267089
:105030004846FEF7E5FB002088F80000BDE8F08751
:10504000BD020020D0020020F85C0020C102002038
:10505000C2020020C702002070B505460026634842
:10506000007800B170BD6248007800B1FAE71DB366
:10507000FEF7C2FB06465F48006890F828405E488D
:10508000005D5C49096891F8291088435A49085520
:105090000846005D40B95748006890F82A10574804
:1050A00000788843554908705248006805623046C8
:1050B000FEF7A6FBFDF70BFE00BFD3E72DE9F0419D
:1050C00004460D4616461F464848007810B1552044
:1050D000BDE8F0814648007808B13220F8E7781C36
:1050E0004FF4FA7148434900B0FBF1F14FF46160AD
:1050F0006043C5EB051200EB8200304400EB400238
:10510000C2EBC01001EB80084046FFF7A5FF00206E
:10511000DEE770B505460026202D01D32A2070BD9C
:10512000FEF76AFB0646364850F8254024B930465B
:10513000FEF766FB4320F2E7012C04D13046FEF770
:105140005FFB4320EBE7206A20B93046FEF758FBAF
:105150005020E4E70020206294F8240000F037009B
:1051600040B114F8240F20F0370020700120607047
:10517000243C02E0002084F8250094F8240000F08C
:105180000800A8B92834A0781C49097808431B49AD
:10519000087020781849085C6178084314F82819C9
:1051A000154A50543046FEF72BFBFDF790FD02E008
:1051B0003046FEF725FB0020B1E770B50025FEF76D
:1051C0001BFB05460F4804682846FEF719FB2046DE
:1051D00070BD70B504460025FEF70EFB0546094874
:1051E00004602846FEF70CFB70BD0000BD020020E5
:1051F000BE020020D0020020C2020020C102002016
:10520000F85C0020EC02002009488047094800476C
:10521000FEE77047FEE7FEE7FEE7FEE7FEE7FEE794
:10522000FEE7FEE704480549054A064B70470000C3
:105230000953000885010008E07F0020E0C7002036
:10524000E0BF0020E0BF00200CB5002001900090DE
:105250006B48006840F480306949086000BF6848C6
:10526000006800F4003000900198401C0190009804
:1052700018B90198B0F5A06FF1D16148006800F449
:10528000003010B10120009001E000200090009853
:10529000012838D15A480830006859490831086057
:1052A0000846006840F4004008600846006840F482
:1052B000A05008605348091F0860081F006840F0AC
:1052C0008070091F086000BF4D48006800F0007042
:1052D0000028F9D040F203704B4908604848083074
:1052E000006820F00300464908310860084600685D
:1052F00040F00200086000BF41480830006800F03C
:105300000C000828F8D10CBD10B53D48006840F0ED
:1053100001003B49086000203949083108603848DD
:1053200000683A490840364908603948091D086054
:10533000081F006820F48020091F08600020304901
:105340000C310860FFF780FF4FF0006031490860C2
:1053500010BD70B500200022022300240221284D38
:1053600008352D6805F00C0020B1042806D0082867
:1053700034D107E0284D294E356033E0284D274EC3
:1053800035602FE01E4D2D1D2D68C5F380541C4D3A
:105390002D1D2D6805F03F0154B1214DB5FBF1F5F0
:1053A000174E361D3668C6F3881605FB06F209E06F
:1053B000194DB5FBF1F5124E361D3668C6F3881649
:1053C00005FB06F20E4D2D1D2D68C5F301456D1C24
:1053D0006B00B2FBF3F5114E356003E00E4D0F4E3E
:1053E000356000BF00BF064D08352D68C5F30315B5
:1053F0000C4E705D094D2D68C540084E356070BD7E
:1054000000380240193C4005003C0240FFFFF6FE18
:105410001030002408ED00E00024F400F002002029
:1054200040787D01F402002032490143324A116084
:10543000704770B5002100230F22C4781CB32E4C96
:10544000246804F4E064C4F5E064C4F30721C1F106
:105450000404E3B20A4144789C40E1B284781440E9
:1054600021430C07210E254C05786155047804F082
:105470001F050124AC4005786D11AD0005F1E02554
:10548000C5F8004109E0047804F01F050124AC4090
:105490001B4D0678761145F8264070BD194A0A4022
:1054A0000243154B1B1F1A60704739B1124A121D77
:1054B00012680243104B1B1D1A6006E00E4A121DB3
:1054C000126882430C4B1B1D1A607047042808D1D8
:1054D0004FF0E021096941F004014FF0E022116131
:1054E00007E04FF0E021096921F004014FF0E022CC
:1054F000116170470000FA050CED00E000E400E0E7
:1055000080E100E080FFFF1F10B50121080201F0DB
:10551000D1FF00214FF4807001F0CCFF10BD30B5F9
:105520000246002000235068F84C20400D790C689A
:1055300044EA0524204350609068F54C2040D1E9AE
:1055400003542C438D682C434D7944EA4504204391
:105550009060D06A20F470000C7D641EE4B2234396
:1055600040EA0350D06230BD0021016001714171F9
:105570008160C16001610121017570470021E54A28
:105580001168E54A1140D0E900231A4383681A43A1
:10559000C3681A431143E14AC2F80413704700215B
:1055A000016041608160C160704721B1826842F052
:1055B0000102826003E0826822F00102826070478B
:1055C0000A4600214168D64B19401143416070479B
:1055D0004162826270470A460021416821F01F0142
:1055E00011434160704738B1CA49096841F400016C
:1055F000CA4AC2F8041306E0C649096821F400014A
:10560000C64AC2F80413704738B1C249096841F468
:105610008001C24AC2F8041306E0BE49096821F4B9
:105620008001BE4AC2F804137047F0B504460D4627
:1056300000200021092D11DDE068A5F10A0606EB26
:105640004607072606FA07F18843A5F10A0606EB86
:10565000460603FA06F10843E0600CE0206905EB1A
:105660004507072606FA07F1884305EB450603FAC6
:1056700006F108432061072A0FDA606B561E06EB1D
:1056800086071F2606FA07F18843561E06EB860694
:1056900005FA06F10843606322E00D2A0FDA206B59
:1056A000D61F06EB86071F2606FA07F18843D61F8A
:1056B00006EB860605FA06F10843206310E0E06A6F
:1056C000A2F10D0606EB86071F2606FA07F18843AE
:1056D000A2F10D0606EB860605FA06F10843E06224
:1056E000F0BD816841F08041816070470146002033
:1056F0008A6802F480020AB1012000E000207047AD
:1057000021B1826842F48062826003E0826822F400
:1057100080628260704721B1826842F0020282603A
:1057200003E0826822F002028260704710B50A46E8
:1057300000210023416821F46041531E41EA4331B6
:10574000416010BD21B1426842F40062426003E052
:10575000426822F40062426070470146C86C80B221
:1057600070476C48001D0068704721B1826842F4A0
:105770008072826003E0826822F4807282607047E7
:1057800021B1826842F40072826003E0826822F4F0
:1057900000728260704738B15E49096841F4005177
:1057A0005E4AC2F8041306E05A49096821F4005120
:1057B0005A4AC2F804137047F0B504461546002053
:1057C00000220026092911DDE068A1F10A0707EB94
:1057D000470C072707FA0CF29043A1F10A0707EBE1
:1057E000470703FA07F21043E0600CE0206901EB81
:1057F000410C072707FA0CF2904301EB410703FA2B
:1058000007F210432061A06BC0F30156EF1C06F1B4
:10581000010CA7EB0C0707EB870C1F2707FA0CF20C
:105820009043EF1C06F1010CA7EB0C0707EB870771
:1058300001FA07F21043A063F0BD10B50A4600213B
:105840000023816B21F44011531E41EA035181630F
:1058500010BD08B5002300930090009B0B440093FB
:10586000009B1A6008BD0A460021816821F470215E
:105870001143816070470A460021816821F440117C
:10588000114381607047816841F4800181607047F5
:10589000014600208A6802F480020AB1012000E07B
:1058A0000020704721B1426842F48062426003E008
:1058B000426822F480624260704721B1426842F43B
:1058C0008052426003E0426822F480524260704796
:1058D00008B5024600200090009201F12800009BCC
:1058E000184400900098006880B208BD10B50B46BF
:1058F0000021D9B2012404FA01F11AB144680C4321
:10590000446002E044688C43446010BDFFFEFFFC2D
:10591000FDF7FFC004230140E030FCFF0020014000
:10592000FFFD3FFF0246002013680B400BB1012032
:1059300000E000207047CA430260704770B502461D
:105940000020002300240B12556801268E4005EA32
:10595000060415681D4015B10CB1012000E00020BF
:1059600070BD00220A12D3430360704710B504468D
:10597000FE48844209D10121480601F08AFD002138
:105980004FF0007001F085FD08E00121880601F06C
:1059900080FD00214FF0806001F07BFD10BD30B52F
:1059A000024600200023146824F0020414601468E6
:1059B00044F00104146000E05B1C546804F001042E
:1059C0001CB94FF6FF74A342F6D1546804F00104E9
:1059D0000CB900206CE08C79012C04D1146844F0DF
:1059E0008004146003E0146824F080041460CC790F
:1059F000012C04D1146844F04004146003E01468DE
:105A000024F0400414600C7A012C04D1146844F092
:105A10002004146003E0146824F0200414604C7A1D
:105A2000012C04D1146844F01004146003E01468DD
:105A300024F0100414608C7A012C04D1146844F012
:105A40000804146003E0146824F008041460CC7A9D
:105A5000012C04D1146844F00404146003E01468B9
:105A600024F0040414608C78A407CD7844EA05641B
:105A70000D7944EA05444D7944EA05540D886D1EBC
:105A80002C43D461146824F001041460002300E066
:105A90005B1C546804F001041CB14FF6FF74A34270
:105AA000F6D1546804F001040CB1002000E001209C
:105AB00030BD10B50021837A012202FA03F1AC4A0D
:105AC000126842F00102AA4B1A60A94A1C321268FD
:105AD0008A43A74B1C331A60027BCAB9A44A0C3212
